{
  "_format": "hh-sol-artifact-1",
  "contractName": "BuyMeACoffee",
  "sourceName": "contracts/BuyMeACoffee.sol",
  "abi": [
    {
      "inputs": [],
      "stateMutability": "nonpayable",
      "type": "constructor"
    },
    {
      "anonymous": false,
      "inputs": [
        {
          "indexed": true,
          "internalType": "address",
          "name": "tokenOwner",
          "type": "address"
        },
        {
          "indexed": true,
          "internalType": "address",
          "name": "spender",
          "type": "address"
        },
        {
          "indexed": false,
          "internalType": "uint256",
          "name": "tokens",
          "type": "uint256"
        }
      ],
      "name": "Approval",
      "type": "event"
    },
    {
      "anonymous": false,
      "inputs": [
        {
          "indexed": true,
          "internalType": "address",
          "name": "from",
          "type": "address"
        },
        {
          "indexed": false,
          "internalType": "uint256",
          "name": "timestamp",
          "type": "uint256"
        },
        {
          "indexed": false,
          "internalType": "string",
          "name": "name",
          "type": "string"
        },
        {
          "indexed": false,
          "internalType": "string",
          "name": "message",
          "type": "string"
        }
      ],
      "name": "NewMemo",
      "type": "event"
    },
    {
      "inputs": [
        {
          "internalType": "address",
          "name": "delegate",
          "type": "address"
        },
        {
          "internalType": "uint256",
          "name": "numTokens",
          "type": "uint256"
        }
      ],
      "name": "approve",
      "outputs": [
        {
          "internalType": "bool",
          "name": "",
          "type": "bool"
        }
      ],
      "stateMutability": "nonpayable",
      "type": "function"
    },
    {
      "inputs": [
        {
          "internalType": "string",
          "name": "_name",
          "type": "string"
        },
        {
          "internalType": "string",
          "name": "_message",
          "type": "string"
        }
      ],
      "name": "buyCoffee",
      "outputs": [],
      "stateMutability": "payable",
      "type": "function"
    },
    {
      "inputs": [
        {
          "internalType": "string",
          "name": "_name",
          "type": "string"
        },
        {
          "internalType": "string",
          "name": "_message",
          "type": "string"
        }
      ],
      "name": "buyLargeCoffee",
      "outputs": [],
      "stateMutability": "payable",
      "type": "function"
    },
    {
      "inputs": [],
      "name": "getMemos",
      "outputs": [
        {
          "components": [
            {
              "internalType": "address",
              "name": "from",
              "type": "address"
            },
            {
              "internalType": "uint256",
              "name": "timestamp",
              "type": "uint256"
            },
            {
              "internalType": "string",
              "name": "name",
              "type": "string"
            },
            {
              "internalType": "string",
              "name": "message",
              "type": "string"
            }
          ],
          "internalType": "struct BuyMeACoffee.Memo[]",
          "name": "",
          "type": "tuple[]"
        }
      ],
      "stateMutability": "view",
      "type": "function"
    },
    {
      "inputs": [],
      "name": "withdrawTips",
      "outputs": [],
      "stateMutability": "nonpayable",
      "type": "function"
    }
  ],
  "bytecode": "0x608060405234801561001057600080fd5b5033600160006101000a81548173ffffffffffffffffffffffffffffffffffffffff021916908373ffffffffffffffffffffffffffffffffffffffff160217905550610e50806100616000396000f3fe60806040526004361061004a5760003560e01c8063095ea7b31461004f578063204206e11461008c5780633aaa74b2146100a8578063417f9ea9146100bf578063865c5172146100db575b600080fd5b34801561005b57600080fd5b5061007660048036038101906100719190610882565b610106565b6040516100839190610b10565b60405180910390f35b6100a660048036038101906100a191906108be565b6101f8565b005b3480156100b457600080fd5b506100bd610380565b005b6100d960048036038101906100d491906108be565b6103e2565b005b3480156100e757600080fd5b506100f061056a565b6040516100fd9190610aee565b60405180910390f35b600081600260003373ffffffffffffffffffffffffffffffffffffffff1673ffffffffffffffffffffffffffffffffffffffff16815260200190815260200160002060008573ffffffffffffffffffffffffffffffffffffffff1673ffffffffffffffffffffffffffffffffffffffff168152602001908152602001600020819055508273ffffffffffffffffffffffffffffffffffffffff163373ffffffffffffffffffffffffffffffffffffffff167f8c5be1e5ebec7d5bd14f71427d1e84f3dd0314c0f7b2291e5b200ac8c7c3b925846040516101e69190610b4b565b60405180910390a36001905092915050565b6000341161023b576040517f08c379a000000000000000000000000000000000000000000000000000000000815260040161023290610b2b565b60405180910390fd5b600060405180608001604052803373ffffffffffffffffffffffffffffffffffffffff16815260200142815260200184815260200183815250908060018154018082558091505060019003906000526020600020906004020160009091909190915060008201518160000160006101000a81548173ffffffffffffffffffffffffffffffffffffffff021916908373ffffffffffffffffffffffffffffffffffffffff16021790555060208201518160010155604082015181600201908051906020019061030a92919061074d565b50606082015181600301908051906020019061032792919061074d565b5050503373ffffffffffffffffffffffffffffffffffffffff167fc56140e05f516509ae28110e0f72e17558a7561630dad2647c3ae87d986e365c42848460405161037493929190610b66565b60405180910390a25050565b600160009054906101000a900473ffffffffffffffffffffffffffffffffffffffff1673ffffffffffffffffffffffffffffffffffffffff166108fc479081150290604051600060405180830381858888f193505050506103e057600080fd5b565b60003411610425576040517f08c379a000000000000000000000000000000000000000000000000000000000815260040161041c90610b2b565b60405180910390fd5b600060405180608001604052803373ffffffffffffffffffffffffffffffffffffffff16815260200142815260200184815260200183815250908060018154018082558091505060019003906000526020600020906004020160009091909190915060008201518160000160006101000a81548173ffffffffffffffffffffffffffffffffffffffff021916908373ffffffffffffffffffffffffffffffffffffffff1602179055506020820151816001015560408201518160020190805190602001906104f492919061074d565b50606082015181600301908051906020019061051192919061074d565b5050503373ffffffffffffffffffffffffffffffffffffffff167fc56140e05f516509ae28110e0f72e17558a7561630dad2647c3ae87d986e365c42848460405161055e93929190610b66565b60405180910390a25050565b60606000805480602002602001604051908101604052809291908181526020016000905b8282101561074457838290600052602060002090600402016040518060800160405290816000820160009054906101000a900473ffffffffffffffffffffffffffffffffffffffff1673ffffffffffffffffffffffffffffffffffffffff1673ffffffffffffffffffffffffffffffffffffffff1681526020016001820154815260200160028201805461062190610cf1565b80601f016020809104026020016040519081016040528092919081815260200182805461064d90610cf1565b801561069a5780601f1061066f5761010080835404028352916020019161069a565b820191906000526020600020905b81548152906001019060200180831161067d57829003601f168201915b505050505081526020016003820180546106b390610cf1565b80601f01602080910402602001604051908101604052809291908181526020018280546106df90610cf1565b801561072c5780601f106107015761010080835404028352916020019161072c565b820191906000526020600020905b81548152906001019060200180831161070f57829003601f168201915b5050505050815250508152602001906001019061058e565b50505050905090565b82805461075990610cf1565b90600052602060002090601f01602090048101928261077b57600085556107c2565b82601f1061079457805160ff19168380011785556107c2565b828001600101855582156107c2579182015b828111156107c15782518255916020019190600101906107a6565b5b5090506107cf91906107d3565b5090565b5b808211156107ec5760008160009055506001016107d4565b5090565b60006108036107fe84610bd0565b610bab565b90508281526020810184848401111561081b57600080fd5b610826848285610caf565b509392505050565b60008135905061083d81610dec565b92915050565b600082601f83011261085457600080fd5b81356108648482602086016107f0565b91505092915050565b60008135905061087c81610e03565b92915050565b6000806040838503121561089557600080fd5b60006108a38582860161082e565b92505060206108b48582860161086d565b9150509250929050565b600080604083850312156108d157600080fd5b600083013567ffffffffffffffff8111156108eb57600080fd5b6108f785828601610843565b925050602083013567ffffffffffffffff81111561091457600080fd5b61092085828601610843565b9150509250929050565b60006109368383610a66565b905092915050565b61094781610c67565b82525050565b600061095882610c11565b6109628185610c34565b93508360208202850161097485610c01565b8060005b858110156109b05784840389528151610991858261092a565b945061099c83610c27565b925060208a01995050600181019050610978565b50829750879550505050505092915050565b6109cb81610c79565b82525050565b60006109dc82610c1c565b6109e68185610c45565b93506109f6818560208601610cbe565b6109ff81610db2565b840191505092915050565b6000610a1582610c1c565b610a1f8185610c56565b9350610a2f818560208601610cbe565b610a3881610db2565b840191505092915050565b6000610a50601c83610c56565b9150610a5b82610dc3565b602082019050919050565b6000608083016000830151610a7e600086018261093e565b506020830151610a916020860182610ad0565b5060408301518482036040860152610aa982826109d1565b91505060608301518482036060860152610ac382826109d1565b9150508091505092915050565b610ad981610ca5565b82525050565b610ae881610ca5565b82525050565b60006020820190508181036000830152610b08818461094d565b905092915050565b6000602082019050610b2560008301846109c2565b92915050565b60006020820190508181036000830152610b4481610a43565b9050919050565b6000602082019050610b606000830184610adf565b92915050565b6000606082019050610b7b6000830186610adf565b8181036020830152610b8d8185610a0a565b90508181036040830152610ba18184610a0a565b9050949350505050565b6000610bb5610bc6565b9050610bc18282610d23565b919050565b6000604051905090565b600067ffffffffffffffff821115610beb57610bea610d83565b5b610bf482610db2565b9050602081019050919050565b6000819050602082019050919050565b600081519050919050565b600081519050919050565b6000602082019050919050565b600082825260208201905092915050565b600082825260208201905092915050565b600082825260208201905092915050565b6000610c7282610c85565b9050919050565b60008115159050919050565b600073ffffffffffffffffffffffffffffffffffffffff82169050919050565b6000819050919050565b82818337600083830152505050565b60005b83811015610cdc578082015181840152602081019050610cc1565b83811115610ceb576000848401525b50505050565b60006002820490506001821680610d0957607f821691505b60208210811415610d1d57610d1c610d54565b5b50919050565b610d2c82610db2565b810181811067ffffffffffffffff82111715610d4b57610d4a610d83565b5b80604052505050565b7f4e487b7100000000000000000000000000000000000000000000000000000000600052602260045260246000fd5b7f4e487b7100000000000000000000000000000000000000000000000000000000600052604160045260246000fd5b6000601f19601f8301169050919050565b7f4e6f7420656e6f7567682045544820746f2062757920636f6666656500000000600082015250565b610df581610c67565b8114610e0057600080fd5b50565b610e0c81610ca5565b8114610e1757600080fd5b5056fea2646970667358221220c7b656cee136009a762e7195225a7972178e0edc1ecac3d724bb9cffc1410bfe64736f6c63430008040033",
  "linkReferences": {},
  "deployedLinkReferences": {}
}